{
  "contractName": "Explorer",
  "abi": [
    {
      "constant": true,
      "inputs": [
        {
          "name": "",
          "type": "address"
        }
      ],
      "name": "products",
      "outputs": [
        {
          "name": "name",
          "type": "string"
        },
        {
          "name": "source_name",
          "type": "string"
        }
      ],
      "payable": false,
      "stateMutability": "view",
      "type": "function"
    },
    {
      "constant": true,
      "inputs": [],
      "name": "owner",
      "outputs": [
        {
          "name": "",
          "type": "address"
        }
      ],
      "payable": false,
      "stateMutability": "view",
      "type": "function"
    },
    {
      "constant": true,
      "inputs": [
        {
          "name": "",
          "type": "address"
        }
      ],
      "name": "ingredients",
      "outputs": [
        {
          "name": "name",
          "type": "string"
        }
      ],
      "payable": false,
      "stateMutability": "view",
      "type": "function"
    },
    {
      "inputs": [],
      "payable": false,
      "stateMutability": "nonpayable",
      "type": "constructor"
    },
    {
      "constant": false,
      "inputs": [
        {
          "name": "_product_address",
          "type": "address"
        },
        {
          "name": "_name",
          "type": "string"
        },
        {
          "name": "_kings_name",
          "type": "string"
        }
      ],
      "name": "addProduct",
      "outputs": [],
      "payable": false,
      "stateMutability": "nonpayable",
      "type": "function"
    },
    {
      "constant": false,
      "inputs": [
        {
          "name": "_ingredients_address",
          "type": "address"
        },
        {
          "name": "_product_address",
          "type": "address"
        },
        {
          "name": "_name",
          "type": "string"
        }
      ],
      "name": "addIngredient",
      "outputs": [],
      "payable": false,
      "stateMutability": "nonpayable",
      "type": "function"
    },
    {
      "constant": true,
      "inputs": [
        {
          "name": "_product_address",
          "type": "address"
        }
      ],
      "name": "getDestrictLength",
      "outputs": [
        {
          "name": "",
          "type": "uint256"
        }
      ],
      "payable": false,
      "stateMutability": "view",
      "type": "function"
    },
    {
      "constant": true,
      "inputs": [
        {
          "name": "_product_address",
          "type": "address"
        },
        {
          "name": "_index",
          "type": "uint256"
        }
      ],
      "name": "getDestrict",
      "outputs": [
        {
          "name": "",
          "type": "address"
        }
      ],
      "payable": false,
      "stateMutability": "view",
      "type": "function"
    }
  ],
  "bytecode": "0x608060405234801561001057600080fd5b50336000806101000a81548173ffffffffffffffffffffffffffffffffffffffff021916908373ffffffffffffffffffffffffffffffffffffffff160217905550610bd2806100606000396000f300608060405260043610610083576000357c0100000000000000000000000000000000000000000000000000000000900463ffffffff16806365c669af1461008857806365e214ea146100df578063793a8e71146101ae5780638da5cb5b146102d6578063aa3f75b61461032d578063c713208e146103ba578063cfb9ca4314610476575b600080fd5b34801561009457600080fd5b506100c9600480360381019080803573ffffffffffffffffffffffffffffffffffffffff16906020019092919050505061051f565b6040518082815260200191505060405180910390f35b3480156100eb57600080fd5b506101ac600480360381019080803573ffffffffffffffffffffffffffffffffffffffff169060200190929190803590602001908201803590602001908080601f0160208091040260200160405190810160405280939291908181526020018383808284378201915050505050509192919290803590602001908201803590602001908080601f016020809104026020016040519081016040528093929190818152602001838380828437820191505050505050919291929050505061056e565b005b3480156101ba57600080fd5b506101ef600480360381019080803573ffffffffffffffffffffffffffffffffffffffff169060200190929190505050610628565b604051808060200180602001838103835285818151815260200191508051906020019080838360005b83811015610233578082015181840152602081019050610218565b50505050905090810190601f1680156102605780820380516001836020036101000a031916815260200191505b50838103825284818151815260200191508051906020019080838360005b8381101561029957808201518184015260208101905061027e565b50505050905090810190601f1680156102c65780820380516001836020036101000a031916815260200191505b5094505050505060405180910390f35b3480156102e257600080fd5b506102eb61077c565b604051808273ffffffffffffffffffffffffffffffffffffffff1673ffffffffffffffffffffffffffffffffffffffff16815260200191505060405180910390f35b34801561033957600080fd5b50610378600480360381019080803573ffffffffffffffffffffffffffffffffffffffff169060200190929190803590602001909291905050506107a1565b604051808273ffffffffffffffffffffffffffffffffffffffff1673ffffffffffffffffffffffffffffffffffffffff16815260200191505060405180910390f35b3480156103c657600080fd5b506103fb600480360381019080803573ffffffffffffffffffffffffffffffffffffffff169060200190929190505050610825565b6040518080602001828103825283818151815260200191508051906020019080838360005b8381101561043b578082015181840152602081019050610420565b50505050905090810190601f1680156104685780820380516001836020036101000a031916815260200191505b509250505060405180910390f35b34801561048257600080fd5b5061051d600480360381019080803573ffffffffffffffffffffffffffffffffffffffff169060200190929190803573ffffffffffffffffffffffffffffffffffffffff169060200190929190803590602001908201803590602001908080601f01602080910402602001604051908101604052809392919081815260200183838082843782019150505050505091929192905050506108db565b005b6000600160008373ffffffffffffffffffffffffffffffffffffffff1673ffffffffffffffffffffffffffffffffffffffff168152602001908152602001600020600201805490509050919050565b6105766109fe565b82816000018190525081816020018190525080600160008673ffffffffffffffffffffffffffffffffffffffff1673ffffffffffffffffffffffffffffffffffffffff16815260200190815260200160002060008201518160000190805190602001906105e4929190610a20565b506020820151816001019080519060200190610601929190610a20565b50604082015181600201908051906020019061061e929190610aa0565b5090505050505050565b6001602052806000526040600020600091509050806000018054600181600116156101000203166002900480601f0160208091040260200160405190810160405280929190818152602001828054600181600116156101000203166002900480156106d45780601f106106a9576101008083540402835291602001916106d4565b820191906000526020600020905b8154815290600101906020018083116106b757829003601f168201915b505050505090806001018054600181600116156101000203166002900480601f0160208091040260200160405190810160405280929190818152602001828054600181600116156101000203166002900480156107725780601f1061074757610100808354040283529160200191610772565b820191906000526020600020905b81548152906001019060200180831161075557829003601f168201915b5050505050905082565b6000809054906101000a900473ffffffffffffffffffffffffffffffffffffffff1681565b6000600160008473ffffffffffffffffffffffffffffffffffffffff1673ffffffffffffffffffffffffffffffffffffffff168152602001908152602001600020600201828154811015156107f257fe5b9060005260206000200160009054906101000a900473ffffffffffffffffffffffffffffffffffffffff16905092915050565b6002602052806000526040600020600091509050806000018054600181600116156101000203166002900480601f0160208091040260200160405190810160405280929190818152602001828054600181600116156101000203166002900480156108d15780601f106108a6576101008083540402835291602001916108d1565b820191906000526020600020905b8154815290600101906020018083116108b457829003601f168201915b5050505050905081565b6108e3610b2a565b600082826000018190525081600260008773ffffffffffffffffffffffffffffffffffffffff1673ffffffffffffffffffffffffffffffffffffffff168152602001908152602001600020600082015181600001908051906020019061094a929190610a20565b50905050600160008573ffffffffffffffffffffffffffffffffffffffff1673ffffffffffffffffffffffffffffffffffffffff1681526020019081526020016000209050806002018590806001815401808255809150509060018203906000526020600020016000909192909190916101000a81548173ffffffffffffffffffffffffffffffffffffffff021916908373ffffffffffffffffffffffffffffffffffffffff160217905550505050505050565b6060604051908101604052806060815260200160608152602001606081525090565b828054600181600116156101000203166002900490600052602060002090601f016020900481019282601f10610a6157805160ff1916838001178555610a8f565b82800160010185558215610a8f579182015b82811115610a8e578251825591602001919060010190610a73565b5b509050610a9c9190610b3e565b5090565b828054828255906000526020600020908101928215610b19579160200282015b82811115610b185782518260006101000a81548173ffffffffffffffffffffffffffffffffffffffff021916908373ffffffffffffffffffffffffffffffffffffffff16021790555091602001919060010190610ac0565b5b509050610b269190610b63565b5090565b602060405190810160405280606081525090565b610b6091905b80821115610b5c576000816000905550600101610b44565b5090565b90565b610ba391905b80821115610b9f57600081816101000a81549073ffffffffffffffffffffffffffffffffffffffff021916905550600101610b69565b5090565b905600a165627a7a72305820d876ad555ad1db8476d5235b7323d57ee4be47d1e7e57c079e23662a35eb679e0029",
  "source": "pragma solidity ^0.4.23;\r\n\r\ncontract Explorer {\r\n    \r\n    address public owner;\r\n\r\n    struct Product {\r\n        string name;\r\n        string source_name;\r\n        address[] ingredientsArray;\r\n    }\r\n\r\n    mapping (address => Product) public products;\r\n\r\n    struct Ingredient {\r\n        string name;\r\n    }\r\n\r\n    mapping (address => Ingredient) public ingredients;\r\n\r\n    constructor() public {\r\n        owner = msg.sender;\r\n    }\r\n    \r\n    function addProduct(address _product_address, string _name, string _kings_name) public {\r\n        // creating a temp struct first\r\n        Product memory newProduct;\r\n        newProduct.name = _name;\r\n        newProduct.source_name = _kings_name;\r\n\r\n        // saving struct into the `products` mapping\r\n        products[_product_address] = newProduct;\r\n    }\r\n\r\n    function addIngredient(address _ingredients_address, address _product_address, string _name) public {\r\n        // creating a temp struct first\r\n        Ingredient memory newIngredient;\r\n        newIngredient.name = _name;\r\n\r\n        // saving struct into the `ingredients` mapping\r\n        ingredients[_ingredients_address] = newIngredient;\r\n\r\n        Product storage _product = products[_product_address];\r\n        _product.ingredientsArray.push(_ingredients_address);\r\n    }\r\n\r\n    function getDestrictLength(address _product_address) public view returns (uint256) {\r\n        return products[_product_address].ingredientsArray.length;\r\n    }\r\n\r\n    function getDestrict(address _product_address, uint256 _index) public view returns (address) {\r\n        return products[_product_address].ingredientsArray[_index];\r\n    }\r\n\r\n}\r\n",
  "sourcePath": "C:\\Users\\PC\\Desktop\\Dapp 2.0\\contracts\\Explorer.sol",
  "compiler": {
    "name": "solc",
    "version": "0.4.24+commit.e67f0147.Emscripten.clang"
  },
  "schemaVersion": "2.0.1",
  "updatedAt": "2018-08-18T19:47:00.940Z"
}